:020000040800F2
:10000000080B002065250008E9010008EB01000845
:10001000EF010008F3010008F701000800000000EC
:10002000000000000000000000000000FB010008CC
:10003000FD01000800000000FF01000801020008A7
:100040007F2500087F2500087F2500087F25000800
:100050007F2500087F2500087F2500087F250008F0
:100060007F2500087F2500087F2500087F250008E0
:100070007F2500087F2500087F2500087F250008D0
:100080007F250008450E00087F2500087F25000811
:10009000150200087F2500087F2500087F2500083D
:1000A0007F2500087F2500087F2500087F250008A0
:1000B0006B1100087F2500087F2500081302000847
:1000C000110200087F2500087F2500087F25000811
:1000D0007F250008150600087F2500087F250008F9
:1000E0007F2500087F2500087F2500087F25000860
:1000F0007F2500087F2500087F2500087F25000850
:100100007F2500087F2500087F2500087F2500083F
:100110007F2500087F2500087F2500087F2500082F
:10012000891100087F2500087F2500087F25000829
:100130007F2500080F0200087F2500087F250008A2
:100140007F2500087F2500087F2500087F250008FF
:100150007F2500087F2500087F2500087F250008EF
:100160007F2500087F2500087F2500087F250008DF
:100170007F2500087F2500087F2500087F250008CF
:100180007F250008DFF80CD005F0E4FA00480047AE
:1001900099010008080B0020002400F073F802F019
:1001A0003BF902F055F94FF4FA721146322002F091
:1001B00075F94FF4E13000F0D1F902F047F800F0A2
:1001C000C6FF00F007F90AE005480178054801F08C
:1001D000C7FA0446204601F0FDFA01F0B9FFF3E743
:1001E0001700002054060020704700BFFEE700BF44
:1001F000FEE700BFFEE700BFFEE7704770477047AD
:1002000010B500F06EF918A005F0E4FA10BD7047C3
:100210007047704710B500240020154908604860F9
:1002200008728872C87400BF05E0002110480B30C6
:100230000155601CC4B2082CF7DB0D4A00210D48A3
:1002400002F0C3FF08220A490B310B4805F075FA8A
:1002500048B907480068182805D1012007490870E7
:10026000074802F05AF810BD61610D0A0000000055
:100270004006002000640040000000206E000020C6
:10028000F40600201CB50121132004F0A7F830204B
:10029000009001208DF8040003208DF805006946C8
:1002A000484803F041FC0220009001208DF8040032
:1002B00003208DF805006946434803F035FC4FF4F0
:1002C0000060009001208DF8040003208DF80500E7
:1002D00069463E4803F028FC10213A4803F0A0FC90
:1002E0002021384803F09CFC0221374803F098FC99
:1002F0004FF40061354803F093FC1CBD00E0401E44
:100300000028FCDC704710B510212E4803F088FC53
:1003100020212C4803F084FC02212B4803F080FCB0
:100320004FF40061294803F07BFC2948FFF7E6FF02
:100330001021244803F076FC2021224803F072FCAF
:100340000221214803F06EFC4FF400611F4803F0C6
:1003500069FC1F48FFF7D2FF10BD10B504461021FD
:10036000184803F05DFC2021164803F059FC0221D7
:10037000154803F055FC4FF40061144803F050FC9D
:10038000012C06D0022C09D0032C0CD0042C15D142
:100390000EE010210B4803F045FC10E02021094835
:1003A00003F040FC0BE00221074803F03BFC06E0B1
:1003B0004FF40061054803F035FC00E000BF00BFCA
:1003C00010BD000000000240000402400010024086
:1003D000FFFF4F0008B54FF4A06002F0C5F91420EC
:1003E0008DF8000003208DF8010000208DF8020038
:1003F00001208DF80300684602F0BBF925208DF836
:10040000000000208DF801008DF8020001208DF819
:100410000300684602F0ADF91C208DF800000220B0
:100420008DF8010000208DF8020001208DF80300F6
:10043000684602F09EF938208DF8000001208DF802
:10044000010000208DF8020001208DF803006846AD
:1004500002F08FF908BD00007FB50446684603F03E
:1004600028FF0098B0FBF4F1B1F1807F00D31DE0CC
:1004700021F07F40401E4FF0E022506150170F22C4
:10048000002807DA13071E0E294B00F00F052D1F59
:100490005E5503E013071D0E264B1D5400BF0020C0
:1004A0004FF0E02290610720106100BF4FF0E02084
:1004B000006920F001004FF0E02108617FBD01B527
:1004C0001D49009808604FF0E020006940F00100ED
:1004D0004FF0E021086100BF174800680028FBD1F9
:1004E00008BD1548006820B113480068401E124935
:1004F000086070474FF0E020006920F001004FF0E5
:10050000E02108610846006920F002000861704798
:10051000002107E042F6E06100BF0A00A1F10103FB
:1005200099B2FAD10200A0F1010398B2F2D170475A
:1005300018ED00E000E400E00800002070B504467B
:100540000D46E1B2664804F0DAFF00BF402164487E
:1005500005F085F80028F9D0204670BD10B588B0A8
:1005600004460121092003F039FF0121102003F086
:1005700079FF5B4804F0C2FE02A804F073FF6846EE
:1005800004F08CFF02208DF81C008DF81D00002067
:100590008DF81E0001208DF81F004002069006A96C
:1005A000504803F0C1FA072209214E4803F047FBE7
:1005B0004FF48060069006A94A4803F0B5FA072276
:1005C0000A21484803F03BFB6946454804F056FFC2
:1005D00002940020ADF80C00ADF80E00ADF810004C
:1005E000ADF814000C20ADF8120002A93C4804F04C
:1005F000D3FE012240F22551394805F00BF840F2B4
:100600002661374805F078F80121354804F04CFFA1
:1006100008B010BD10B540F22551314805F035F84D
:1006200068B340F225512E4805F066F82C488088C2
:10063000C4B2FE2C08D101202B49087000202B49A0
:1006400008602B49087010BDFF2C0DD127480068A9
:1006500028490870002024490870012024490870A6
:10066000002022490860EEE71F480078012806D1E3
:100670001E490868411C1D4A11601F490C5400BFE7
:10068000E1E710B540F22551154804F0FEFF40B1F6
:10069000134880881949087040F22551104805F028
:1006A0002BF81648007810BD10B50246002000BF98
:1006B00009E0135C0A4CA38000BF094B1B8813F0B0
:1006C000400FFAD0401C8842F3D310BD0449888003
:1006D00000BF0349098811F0400FFAD070470000AD
:1006E0000010014000000240150000200C00002016
:1006F00016000020170000205406002014000020DF
:100700001CB50121022003F069FE04220621FE48E7
:1007100003F095FA04220721FB4803F090FAC02069
:10072000009002208DF804008DF8050001208DF85E
:10073000060000208DF807006946F34803F0F4F93D
:100740001CBD1FB50121480503F07BFEEF4803F0F7
:10075000ABFA0020ADF804004BF6FF70ADF80600D0
:100760000A20ADF808004FF48060ADF80A00E848B0
:1007700000904FF48040ADF80C006946E34803F068
:10078000BCFA0121E14803F034FB1FBD1CB5002178
:10079000DE4803F02EFBDD4803F086FA00214FF41B
:1007A000001003F04EFE4020009000208DF8040061
:1007B0008DF807006946D44803F0B6F94FF400708D
:1007C00000906946D04803F0AFF90021D14803F00A
:1007D00047F80021CF48903803F042F8CD4802F0A6
:1007E00063FFCC48903802F05FFF1CBD10B5FFF7E7
:1007F000CDFF10BD1CB50121480503F022FE0121EB
:10080000022003F0EBFD0121880303F02BFE012100
:10081000480503F07EFE00214FF4001003F079FE3E
:1008200004220621B84803F00AFA04220921B64836
:1008300003F005FA4020009002208DF804008DF8A6
:10084000050001208DF8060000208DF8070069469C
:10085000AD4803F069F94FF4007000906946AA486A
:1008600003F062F90121480503F0B8FDAA49A9483F
:1008700003F06EF80021A74802F0F2FFA54802F04D
:1008800013FF4FF00070A5490860A0481030486081
:10089000002088604020C8604FF6FF70086100208B
:1008A00048614FF4806088610020C8610862486236
:1008B0004FF4403088620420C8620320086300209F
:1008C00048638863934802F091FF954991489038B6
:1008D00003F03EF800218F48903802F0C1FF8D48A8
:1008E000903802F0E1FE8D498A48903802F07EFF90
:1008F00001221021874803F03FF80122102185488A
:10090000903803F039F81CBD1FB5FFF773FF0020C6
:10091000ADF804004BF6FF70ADF80600A020ADF86E
:1009200008004FF48060ADF80A000001ADF80C003B
:10093000774800900121754803F05BFA69467348D7
:1009400003F0DBF90121714803F02BFBA02075496E
:1009500008801FBD70B504460D46164656B96F484F
:10096000846040206D49C86008460561694802F00E
:100970003DFF0AE06948846000206849C860084675
:1009800005616448903802F031FF70BD0020704767
:1009900070B505460E461446634804604FF4206067
:1009A0006249086008E061490868411E5F4A1160B9
:1009B00010B9FFF7EBFF70BD4FF40031534803F05F
:1009C0003EFB0028EFD10121504803F01EFA4FF4FE
:1009D00080705649086008E054490868411E534A2F
:1009E000116010B9FFF7D2FFE5E75149474803F01E
:1009F00004FB0028F0D04FF480704C49086049484F
:100A00000088C1B20022414803F017FA4FF4807009
:100A10004649086008E045490868411E434A11609C
:100A200010B9FFF7B3FFC6E74249384803F0E5FACB
:100A30000028F0D04FF480703C49086008E03B4942
:100A40000868411E394A116010B9FFF79FFFB2E7ED
:100A50003849891E2D4803F0D0FA0028EFD02178BC
:100A600000222846FFF776FF01212A4802F0F8FE0F
:100A70000121264803F095FA00209CE71CB50020D0
:100A8000019000904FF420602849086008E0274951
:100A90000868411E254A116010B9FFF777FF1CBD99
:100AA0004FF40031194803F0CAFA0028EFD16BE087
:100AB0000121164803F0A9F94FF480701B49086022
:100AC00008E01A490868411E184A116010B9FFF77A
:100AD0005DFFE4E716490D4803F08FFA0028F0D0D7
:100AE00010480088C1B20022084803F0A6F94FF46C
:100AF00020600E49086000BF04481430008801904F
:100B00000A490868411E17E00004024000540040F2
:100B1000A0860100A060024000003D20B806002031
:100B20003D0080102200002034000020380000200A
:100B30000100030082000700E14A116010B9FFF7CD
:100B400025FFACE7BDF8040040F202410842D3D0D3
:100B5000BDF8040010F0020F08D0DA480088012127
:100B6000D848183803F05DF9002098E7D649D548F1
:100B7000183803F081FA0098411C0091B0F5967F77
:100B800002D1FFF703FF8AE792E72DE9F04780469D
:100B90000E4614464FF0000900270025AA463046AD
:100BA000F11706EBD1614911A6EB41111FFA81FA49
:100BB000CAF12000C5B22046E11704EBD161C1F3B0
:100BC0004719E11704EBD1614911A4EB4111CFB2F0
:100BD000BAF1000F66D1B9F1000F1CD1BB48077004
:100BE000024631464046FFF7D3FE4FF42060B44939
:100BF000086009E0B2490868411EB14A116018B99D
:100C0000FFF7C4FEBDE8F087B04800780028F1DCAB
:100C1000FFF734FF14E120E02020AC4908700A46B9
:100C200031464046FFF7B4FE4FF42060A449086007
:100C300008E0A3490868411EA14A116010B9FFF7F6
:100C4000A5FEDFE7A14800780028F2DCFFF716FFD9
:100C500006F1200086B208F120085FEA0900A9F138
:100C6000010101F0FF09D7D1002FD3D097480770B9
:100C7000024631464046FFF78BFE4FF42060904914
:100C8000086008E08E490868411E8D4A116010B95D
:100C9000FFF77CFEB6E78D4800780028F2DCFFF70E
:100CA000EDFECDE0B9F1000F57D1AC4239DD8748F8
:100CB0000570024631464046FFF76AFE4FF4206059
:100CC0007F49086008E07E490868411E7C4A11603F
:100CD00010B9FFF75BFE95E77C4800780028F2DC4E
:100CE000FFF7CCFE601B79490870721991B208EBCE
:100CF0000500764AFFF74CFE4FF42060704908600B
:100D000008E06F490868411E6D4A116010B9FFF78D
:100D10003DFE77E76D4800780028F2DCFFF7AEFE75
:100D20008EE06A480770024631464046FFF730FEC3
:100D30004FF420606249086008E061490868411E7C
:100D40005F4A116010B9FFF721FE5BE75F4800784A
:100D50000028F2DCFFF792FE72E0601B84B22046AE
:100D6000E11704EBD161C1F34719E11704EBD1613D
:100D70004911A4EB4111CFB2EDB1544805700246C0
:100D800031464046FFF704FE4FF420604C490860AE
:100D900008E04B490868411E494A116010B9FFF745
:100DA000F5FD2FE7494800780028F2DCFFF766FEE2
:100DB000701986B2A84420E02020444908700A46F1
:100DC00031464046FFF7E4FD4FF420603C4908609F
:100DD00008E03B490868411E394A116010B9FFF725
:100DE000D5FD0FE7394800780028F2DCFFF746FE12
:100DF00006F1200086B208F120085FEA0900A9F197
:100E0000010101F0FF09D7D1D7B130480770024680
:100E100031464046FFF7BCFD4FF42060284908608A
:100E200008E027490868411E254A116010B9FFF7FC
:100E3000ADFDE7E6254800780028F2DCFFF71EFE4E
:100E400000BFDFE610B52249224802F066FD20B35C
:100E50000021204802F004FD1D491E4802F078FDE3
:100E60004FF420601649086007E015490868411EE4
:100E7000134A116008B9FFF789FD1749114818385E
:100E800003F0DDF80028F0D001210E48183802F0F8
:100E9000C8FF002011490968087010BD10B503464D
:100EA00007E018680C68A04201D0002010BD1B1D8F
:100EB000091D1000A2F10104A2B2F2D10120F5E750
:100EC0003800002018540040000400103C000020AE
:100ED00000002020A0600240040000103400002028
:100EE00000B59BB00121080203F0BCFA0121B34810
:100EF00003F074FA00200090B1480190B1480290CC
:100F000000200390012004900020059006904FF4EB
:100F100000600790800008904011099040020A90FC
:100F200000200B9001200C9000200D900E9069463F
:100F3000A54802F05BFC0121A34802F091FC0820C7
:100F40000F9003208DF8400000208DF843000FA97A
:100F50009E4802F0E9FD002011904FF400301290FD
:100F600000201390149011A801F0AAFC15A801F01C
:100F70009DFC002015908DF8580001208DF8590037
:100F800000201790199001208DF8680015A98C4851
:100F90004C3801F066FC032301220D2188484C38AF
:100FA00001F0EAFC012186484C3801F084FD012162
:100FB00083484C3801F08AFD012181484C3801F00A
:100FC0009BFC7F484C3801F033FD1BB000BD00B5E1
:100FD0008FB00121880503F001FA002000907848C5
:100FE0000190784802900020039002200490002095
:100FF00005904FF4806006904000079080000890B4
:101000004011099040020A9000200B9001200C90A2
:1010100000200D900E9069466B4802F0E7FB10210E
:10102000694802F0EFFC01221021674802F0A4FC9D
:101030000121654802F014FC0FB000BD00B58BB073
:101040000121080203F00EFA0121080203F02CFA34
:1010500000214FF4807003F027FA01F0F7FB002025
:1010600001904FF40030029000200390049001A8FA
:1010700001F026FC05A801F019FC002005900120D4
:101080008DF8180000208DF819004FF0805007905F
:101090004FF0C06008900020099002208DF82800D1
:1010A00005A947484C3801F0DCFB01231A46002112
:1010B00043484C3801F060FC0123022219464048A5
:1010C0004C3801F059FC01213D484C3801F0F3FC4B
:1010D00001213B484C3801F0F9FC012138484C38DB
:1010E00001F00AFC0BB000BD1CB50121084603F05D
:1010F00075F9032000908DF8040000208DF807009A
:101100006946334802F010FD1CBD3EB505460C464D
:101110000121084603F095F90195ADF80040002043
:10112000ADF80200ADF8080069464FF0804003F0CA
:1011300040FB2021480604F095F801221146900753
:1011400003F0D8FF0121880703F0BCFB3EBD10B5BA
:101150004EF65F214FF4FA70FFF7D7FFFFF7C4FF99
:10116000FFF76CFFFFF733FF10BD10B501218807B3
:1011700003F0D7FF38B10121880703F0E3FF2021F6
:10118000134802F058FD10BD10B512490E4802F088
:10119000C4FB88B10F490C4802F034FC0E480078BB
:1011A00050B9084800880D490860064840880C4935
:1011B000086001200849087010BD000004004000CC
:1011C0004C20014040000020106402400008024012
:1011D0000000024020800010440000204800002051
:1011E0004C0000201CB50121082003F0F7F8102066
:1011F000009000208DF8040001208DF8070069465A
:10120000FE4802F091FC1CBD38B504460D4600BFF7
:101210000121204602F0F9FD1421204602F0D9FEFA
:10122000009000222946204602F007FE14212046A5
:1012300002F0CFFE10F0020FEAD0F149204602F092
:101240001BFF0121204602F0ECFD38BD70B50446BD
:101250000D4616460121EB4802F0D7FD4FF4807091
:10126000E949086007E0E8490868411EE64A11605C
:1012700008B9012070BDE549E24802F0BEFE002831
:10128000F1D0E1B20022DF4802F0D7FD4FF48070C8
:10129000DD49086007E0DC490868411EDA4A116050
:1012A00008B90220E6E7DA49D64802F0A6FE00288F
:1012B000F1D0E9B2D34802F044FE4FF48070D24935
:1012C000086007E0D0490868411ECF4A116008B99C
:1012D0000320CFE7CE49891ECA4802F08EFE0028BF
:1012E000F0D03146C74802F02CFE4FF48070C6495A
:1012F000086007E0C4490868411EC34A116008B984
:101300000320B7E7C249891EBE4802F076FE0028D6
:10131000F0D00121BB4802F084FDE1B2B948FFF7EB
:1013200073FF0220FFF7F4F80120A3E710B518229D
:10133000E1217220FFF78AFF032280217220FFF74C
:1013400085FF10BD2DE9F04704460D462046E11704
:1013500004EB11610912A4EB0121CEB2E11704EBF9
:101360001161C1F30727324683217220FFF76EFF18
:101370003A4684217220FFF769FF2846E91705EBFA
:1013800011610912A5EB012101F0FF08E91705EB36
:101390001161C1F30729424685217220FFF756FFEC
:1013A0004A4686217220FFF751FFBDE8F08770B5ED
:1013B00004460D4629462046FFF7C4FF10218F48FA
:1013C00002F014FC012803D192A004F003FA04E017
:1013D000FFF7ACFF93A004F0FDF970BD2DE9F041DB
:1013E00005460F4616461C4614B90120BDE8F0819B
:1013F0000121844802F029FD4FF4206082490860F1
:1014000007E081490868411E7F4A116008B9002041
:10141000ECE74FF400317B4802F011FE0028F0D1D8
:101420000121784802F0F1FC4FF4807076490860A1
:1014300007E075490868411E734A116008B9012028
:10144000D4E772496F4802F0D8FD0028F1D0E9B224
:1014500000226C4802F0F1FC4FF480706A49086089
:1014600007E069490868411E674A116008B903200E
:10147000BCE76749634802F0C0FD0028F1D0F9B22B
:10148000604802F05EFD4FF480705F49086007E03D
:101490005D490868411E5C4A116008B90420A5E74F
:1014A0006449584802F0CBFD0028F1D0012155488D
:1014B00002F0ABFC4FF480705349086007E05249DA
:1014C0000868411E504A116008B901208EE74F4953
:1014D0004C4802F092FD0028F1D0E9B201224948BF
:1014E00002F0ABFC012C4DD120024749086007E017
:1014F00045490868411E444A116008B9002075E753
:101500004C49891E3F4802F09AFD0028F0D0002186
:101510003C4802F09AFC3B481830008801213948C9
:1015200002F07FFC4FF480703749086007E03649CD
:101530000868411E344A116008B9002056E73D4949
:101540003C31304802F07BFD0028F0D02D4802F0FD
:10155000FAFC3070601EC4B24FF480702A490860F3
:1015600007E029490868411E274A116008B9002090
:101570003CE72448008810F4007FF2D10121214883
:1015800002F063FC307831E738B5044601236A463F
:1015900021467320FFF722FF9DF8000038BD10B5EB
:1015A000012280217220FFF751FE1420FEF7B0FFC8
:1015B0006C2281217220FFF749FE032280217220D4
:1015C000FFF744FE182282217220FFF73FFE00221F
:1015D00087217220FFF73AFE10BD70B5D420FFF7C7
:1015E000D3FF0446D520FFF7CFFF05464FF48070A8
:1015F00000FB054010490880D6201FE0000C024087
:1016000000040010005400403800002001000300D6
:1016100082000700696E74657272757074203D20D7
:10162000310D0A00696E74657272757074203D2008
:10163000300D0A000400001052000020FFF7A4FF44
:101640000446D720FFF7A0FF05464FF4807000FB4B
:1016500005404149088070BD2DE9F34F83B08A46AB
:1016600000200190BAF1940F01D1022403E04FF45D
:10167000947090FBFAF4039830B1012806D0022848
:1016800007D003280FD107E025460CE0E4082546E3
:1016900009E02409254606E07320B4FBF0F56B2031
:1016A000B4FBF0F400BF00BFFFF797FF2B480088A2
:1016B00060434FEA50092848008868434FEA500BBE
:1016C000B9F1000F04D04FEA8B20B0FBF9F0019084
:1016D0000198401C460800BF9A2E04D842F24817D1
:1016E00043F671581AE0C32E04D842F6372745F660
:1016F000303813E0E62E04D841F6EF0742F6B95829
:101700000CE0B6F58A7F04D840F6DF7741F69A18E8
:1017100004E0B6F58A7F01D90027B84609FB07F037
:101720000BFB18000290029800F50040029002980E
:10173000000C0090009805B0BDE8F08F10B5D220E5
:10174000FFF722FFFFF72BFF10BD10B5FEF7D8FF04
:10175000FEF7F7FF10BD00005400002052000020EB
:1017600070B505460C46F948007801282FD10020B5
:10177000F64908702246F649284603F0DEFF10B904
:101780000120F44908702246F349284603F0D5FFAA
:1017900068B9F2480078012809D00220ED490870A4
:1017A0001021EF4802F03EFA0220EE49087022466E
:1017B000ED49284603F0C1FF48B90320E549087008
:1017C0001021E74802F02CFA0120E6490870E148B0
:1017D000007870BD10B50446012C04D0022C72D0E4
:1017E000032C71D1FAE2E1480278D949E04803F0CC
:1017F000A4FF40B90F21DF48FEF756FF6421DC4803
:1018000003F090FF30E1D9480278DB49D84803F073
:1018100094FF40B90621D948FEF746FF6421D44819
:1018200003F080FF20E1D1480278D549D04803F089
:1018300084FF40B90621D348FEF736FF6421CC4827
:1018400003F070FF10E1C9480278CF49C84803F09F
:1018500074FF40B90721CD48FEF726FF6421C44834
:1018600003F060FF00E1C1480278C949C04803F0B5
:1018700064FF40B90621C748FEF716FF6421BC4843
:1018800003F050FFF0E0B9480278C349B84803F0CC
:1018900054FF40B90621C148FEF706FF6421B44851
:1018A00003F040FFE0E0B1480278BD49B04803F0E2
:1018B00044FF50B90621BB48FEF7F6FE6421AC4850
:1018C00003F030FFD0E0D0E099E3A8480278B649B1
:1018D000A74803F032FF40B90621B448FEF7E4FE02
:1018E0006421A34803F01EFFBEE0A0480278B0497F
:1018F0009F4803F022FF40B90621AE48FEF7D4FE10
:1019000064219B4803F00EFFAEE098480278AA4994
:10191000974803F012FF40B90621A848FEF7C4FE1D
:101920006421934803F0FEFE9EE090480278A449AB
:101930008F4803F002FF40B90621A248FEF7B4FE2B
:1019400064218B4803F0EEFE8EE0884802789E49C1
:10195000874803F0F2FE40B906219C48FEF7A4FE3A
:101960006421834803F0DEFE7EE0804802789849D7
:101970007F4803F0E2FE40B906219648FEF794FE48
:1019800064217B4803F0CEFE6EE0784802789249ED
:10199000774803F0D2FE40B906219048FEF784FE56
:1019A0006421734803F0BEFE5EE0704802788C4903
:1019B0006F4803F0C2FE40B916218A48FEF774FE54
:1019C00064216B4803F0AEFE4EE068480278864919
:1019D000674803F0B2FE40B916218448FEF764FE62
:1019E0006421634803F09EFE3EE06048027880492F
:1019F0005F4803F0A2FE40B916217E48FEF754FE70
:101A000064215B4803F08EFE2EE0584802787A4944
:101A1000574803F092FE40B916217848FEF744FE7D
:101A20006421534803F07EFE1EE05048027874495A
:101A30004F4803F082FE40B925217248FEF734FE7C
:101A400064214B4803F06EFE0EE0484802786E4970
:101A5000474803F072FE38B927216C48FEF724FE90
:101A60006421434803F05EFE6FE3404802783A4940
:101A70003F4803F062FE40B906216548FEF714FEB8
:101A800064213B4803F04EFEA7E138480278404904
:101A9000374803F052FE40B906213E48FEF704FEE7
:101AA0006421334803F03EFE97E1304802783A491A
:101AB0002F4803F042FE40B906213848FEF7F4FDF6
:101AC00064212B4803F02EFE87E128480278344930
:101AD000274803F032FE40B906213248FEF7E4FD04
:101AE0006421234803F01EFE77E1204802782E4946
:101AF0001F4803F022FE40B906212C48FEF7D4FD12
:101B000064211B4803F00EFE67E11848027828495B
:101B1000174803F012FE40B906212648FEF7C4FD1F
:101B20006421134803F0FEFD57E11048027839495B
:101B30000F4803F002FE40B906213748FEF7B4FD16
:101B400064210B4803F0EEFD47E167E0160000203A
:101B5000245800085D000020585800085C00002050
:101B60000000024068000020285A000817000020EA
:101B70005406002036580008275800084558000829
:101B8000305800084B5800083358000851580008D6
:101B90005C580008F958000860580008FF58000811
:101BA00064580008055900086F5800080B590008D0
:101BB0007B580008115900088E5800082459000865
:101BC0009B5800082A590008A758000830590008F7
:101BD000B458000836590008C15800083C5900089C
:101BE000CD58000842590008D1580008585900083B
:101BF000D55800086E590008E1580008B05900088F
:101C0000E5580008C6590008EF580008015A0008B6
:101C1000F35800088858000817590008F848027857
:101C2000F849F94803F089FD40B90721F748FEF764
:101C30003BFD6421F44803F075FDCEE0F0480278E6
:101C4000F349F14803F079FD40B90621F148FEF768
:101C50002BFD6421EC4803F065FDBEE0E848027806
:101C6000ED49E94803F069FD40B90621EB48FEF76C
:101C70001BFD6421E44803F055FDAEE0E048027826
:101C8000E749E14803F059FD40B90621E548FEF770
:101C90000BFD6421DC4803F045FD9EE0D848027846
:101CA000E149D94803F049FD40B90621DF48FEF774
:101CB000FBFC6421D44803F035FD8EE0D048027867
:101CC000DB49D14803F039FD40B90621D948FEF778
:101CD000EBFC6421CC4803F025FD7EE0C848027887
:101CE000D549C94803F029FD40B91621D348FEF76C
:101CF000DBFC6421C44803F015FD6EE0C0480278A7
:101D0000CF49C14803F019FD40B91621CD48FEF76F
:101D1000CBFC6421BC4803F005FD5EE0B8480278C6
:101D2000C949B94803F009FD40B91621C748FEF773
:101D3000BBFC6421B44803F0F5FC4EE0B0480278E7
:101D4000C349B14803F0F9FC40B91621C148FEF778
:101D5000ABFC6421AC4803F0E5FC3EE0A848027807
:101D6000BD49A94803F0E9FC40B92521BB48FEF76D
:101D70009BFC6421A44803F0D5FC2EE0A048027827
:101D8000B749A14803F0D9FC40B90721B548FEF78F
:101D90008BFC64219C4803F0C5FC1EE09848027847
:101DA000B149994803F0C9FC40B90F21AF48FEF78B
:101DB0007BFC6421944803F0B5FC0EE09048027867
:101DC000AB49914803F0B9FC38B92721A948FEF77F
:101DD0006BFC64218C4803F0A5FCB6E188480278CE
:101DE000A549894803F0A9FC40B90621A348FEF79C
:101DF0005BFC6421844803F095FCA4E180480278F0
:101E00009F49814803F099FC40B906219D48FEF79F
:101E10004BFC64217C4803F085FC94E1784802780F
:101E20009949794803F089FC40B907219748FEF7A2
:101E30003BFC6421744803F075FC84E1704802782F
:101E40009349714803F079FC40B907219148FEF7A6
:101E50002BFC64216C4803F065FC74E1684802784F
:101E60008D49694803F069FC40B90F218B48FEF7A2
:101E70001BFC6421644803F055FC64E1604802786F
:101E80008749614803F059FC40B906218548FEF7AF
:101E90000BFC64215C4803F045FC54E1584802788F
:101EA0008149594803F049FC40B906217F48FEF7B3
:101EB000FBFB6421544803F035FC44E150480278B0
:101EC0007B49514803F039FC40B906217948FEF7B7
:101ED000EBFB64214C4803F025FC34E148480278D0
:101EE0007549494803F029FC40B906217348FEF7BB
:101EF000DBFB6421444803F015FC24E140480278F0
:101F00006F49414803F019FC40B906216D48FEF7BE
:101F1000CBFB64213C4803F005FC14E1384802780F
:101F20003B49394803F009FC40B906213948FEF71E
:101F3000BBFB6421344803F0F5FB04E13048027830
:101F40003549314803F0F9FB40B906213348FEF723
:101F5000ABFB64212C4803F0E5FBF4E02848027851
:101F60002F49294803F0E9FB40B906212D48FEF727
:101F70009BFB6421244803F0D5FBE4E02048027871
:101F80002949214803F0D9FB40B906212748FEF72B
:101F90008BFB64211C4803F0C5FBD4E01848027891
:101FA0002349194803F0C9FB40B906212148FEF72F
:101FB0007BFB6421144803F0B5FBC4E010480278B1
:101FC0001D49114803F0B9FB40B916211B48FEF723
:101FD0006BFB64210C4803F0A5FBB4E008480278D1
:101FE0001749094803F0A9FB40B916211548FEF727
:101FF0005BFB6421044803F095FBA4E064E0A3E0EC
:10200000170000208B580008540600201D590008B6
:102010008E580008245900089B5800082A590008C7
:10202000A758000830590008B4580008365900086D
:10203000C15800083C590008CD5800084259000812
:10204000D158000858590008D55800086E590008A2
:10205000E1580008B0590008E5580008C6590008C2
:10206000E9580008EB590008EC580008F25900083C
:10207000EF580008015A0008285A0008385A00088A
:102080002C5A00083E5A00082F5A0008445A0008EB
:10209000325A00084B5A0008355A0008525A0008B4
:1020A0005C580008F958000860580008FF580008FC
:1020B00064580008055900086F5800080B590008BB
:1020C0007B580008115900084C4802784C494D488B
:1020D00003F033FB40B916214B48FEF7E5FA6421C3
:1020E000484803F01FFB2EE0444802784749454822
:1020F00003F023FB40B916214548FEF7D5FA6421C9
:10210000404803F00FFB1EE03C48027841493D483F
:1021100003F013FB40B925213F48FEF7C5FA6421BF
:10212000384803F0FFFA0EE0344802783B4935485E
:1021300003F003FB38B927213948FEF7B5FA6421CB
:10214000304803F0EFFA00E000BF00BF012010BDEF
:1021500010B53448007888B1002032490870324800
:10216000006800F011F9314908703148006800F04A
:102170000BF93049087019202F4948712B48007815
:102180003C2806DD29480078462802DA01202B4940
:10219000087026480078462811DB28480078012876
:1021A0000DD1002025490870012025490870102113
:1021B000244801F035FD01201F49087010BD20485A
:1021C000007830B119480078462802DA00201C490E
:1021D00008700020F2E710B594210020FFF73CFAC8
:1021E0001949086008460068C82806D21021154819
:1021F00001F016FD01201049087010BD17000020E5
:10220000D5580008540600206E590008E15800080F
:10221000B0590008E5580008C6590008EF580008F2
:10222000015A000844000020480000205E00002001
:102230004C0000205F0000206800002060000020AB
:102240005C000020000002406400002000B589B05E
:102250000121082002F0C2F809220021464801F0BD
:10226000EEFC09220121444801F0E9FC032007901B
:1022700002208DF820008DF8210000208DF822002A
:1022800001208DF8230007A93B4801F04DFC0121F6
:102290004FF0C06002F0D5F8384800F00FFD002084
:1022A0008DF816008DF817008DF818008DF81900BC
:1022B0008DF81A008DF81B008DF812008DF81300B0
:1022C00005208DF8140007208DF815000420ADF8C6
:1022D000100004A9294800F00AFD00208DF80A002A
:1022E0008DF80B0001208DF80C000020ADF80000E7
:1022F000ADF80200ADF80400ADF80600ADF8080036
:1023000001208DF80D00684600F07BFD01220221BE
:102310001A4801F075F809B000BD10B50446032055
:10232000206000206060207260720820A072FE2091
:10233000E072134801782173417861738178A17349
:10234000C178E1730179217441796174FF21A1742D
:1023500021460A4800F044FE10BD10B50446012C89
:1023600002D00CB1002010BD1CB100240548FFF7BD
:10237000D4FF0120F7E70000000C02400064004099
:1023800068000020F4060020F0B50146214880686E
:10239000884201D2FF20F0BD1E48D0F8A005884237
:1023A00001D9FF20F7E70024B525601900EBD077AD
:1023B000C7F34703174850F83300884202D800BFDC
:1023C0001D4601E01C46B52522461DE0114850F887
:1023D0003200884216D30F4F501C57F83000884205
:1023E00010D240F63140814207D9384600EBC20096
:1023F0000079C043401CC6B203E0064800EBC200AF
:10240000067903E0501CC2B2AA42DFDB00BF3046AF
:10241000C1E70000700000201CB50121042001F07C
:10242000DDFFC020009001208DF8040003208DF80E
:1024300005006946054801F077FB4021034801F09B
:10244000F1FB8021014801F0EDFB1CBD00080240BA
:102450001CB50121022001F0F4FF0121084601F022
:10246000BDFFC020009002208DF8040003208DF8ED
:10247000050000208DF8060001208DF80700694650
:10248000354801F051FB02220621334801F0D7FB09
:1024900002220721304801F0D2FB1CBD2DE9F04794
:1024A00088B005460E4617460024A046A146A2461F
:1024B0002A480068400841F28831B0FBF1F0401E24
:1024C0001FFA80FA084690FBF5F0401E84B204FB28
:1024D00006F04FF47A7190FBF1F01FFA80F804FBDC
:1024E00007F090FBF1F01FFA80F90694ADF814A004
:1024F0000020ADF81C00ADF8160005A9184802F040
:1025000058F96020ADF800000120ADF80200CDF8C8
:1025100008800020ADF80C006946114802F0DEF991
:1025200008210F4802F067FB0120ADF80200CDF84A
:10253000089069460A4802F00AFA0821084802F0A1
:1025400063FB0121064802F09FF90121044802F0D3
:10255000B9F908B0BDE8F087000002401806002075
:10256000000400400648804706480047FEE7FEE7B3
:10257000FEE7FEE7FEE7FEE7FEE7FEE7FEE7FEE733
:1025800047260008850100080CB500200190009046
:102590006B48006840F480306949086000BF6848B3
:1025A000006800F4003000900198401C01900098F1
:1025B00018B90198B0F5A06FF1D16148006810F426
:1025C000003F02D00120009001E000200090009820
:1025D000012837D15A480830006859490831086045
:1025E0000846006840F4004008600846006840F46F
:1025F000A05008605348091F0860081F006840F099
:102600008070091F086000BF4D48006810F0007F0F
:10261000FAD040F203704C4908604948083000681D
:1026200020F003004649083108600846006840F081
:102630000200086000BF42480830006800F00C004B
:102640000828F8D10CBD10B53D48006840F00100E5
:102650003B49086000203A49083108603848006862
:102660003A490840364908603948091D0860081F82
:10267000006820F48020091F0860002030490C31D8
:102680000860FFF781FF4FF000603249086010BD1D
:1026900070B500200022022300240221284D0835B5
:1026A0002D6805F00C0020B1042806D0082834D18C
:1026B00007E0294D294E356033E0294D274E35601E
:1026C0002FE01F4D2D1D2D68C5F380541C4D2D1D71
:1026D0002D6805F03F0154B1214DB5FBF1F5184EC1
:1026E000361D3668C6F3881605FB06F209E01A4D5A
:1026F000B5FBF1F5124E361D3668C6F3881605FB9C
:1027000006F20F4D2D1D2D68C5F301456D1C6B00A4
:10271000B2FBF3F5114E356003E00F4D0F4E3560FF
:1027200000BF00BF064D08352D68C5F303150D4EDB
:10273000705D0A4D2D68C540084E356070BD0000C3
:1027400000380240083C4005003C0240FFFFF6FE16
:102750001030002408ED00E00024F40018060020EA
:1027600000127A001C06002033490143334A1160ED
:10277000704770B5002100230F22C47824B32F4C7A
:10278000246804F4E064C4F5E064C4F30721C1F1F3
:102790000404E3B20A4144789C40E1B284781440D6
:1027A00021430C07210E264C05786155047804F06E
:1027B0001F050124AC4005786D114FF0E02606EBB3
:1027C0008505C5F8004109E0047804F01F040125DF
:1027D000A5401C4C0678761144F8265070BD1A4A64
:1027E0000A400243154B1B1F1A60704739B1134A48
:1027F000121D12680243114B1B1D1A6006E00F4A9E
:10280000121D126882430D4B1B1D1A60704704286D
:1028100008D14FF0E021096941F004014FF0E022B6
:10282000116107E04FF0E021096921F004014FF048
:10283000E0221161704700000000FA050CED00E095
:1028400000E400E080E100E080FFFF1F10B50121FF
:10285000080201F06FFE00214FF4807001F06AFE63
:1028600010BD30B50246002000235068F84C2040CF
:102870000D790C6844EA0524204350609068F54CBB
:102880002040D1E903542C438D682C434D7944EA10
:10289000450420439060D06A20F470000C7D641ED3
:1028A000E4B2234340EA0350D06230BD002101600E
:1028B000017141718160C160016101210175704741
:1028C0000021E54A1168E54A01EA0201D0E9002346
:1028D00042EA0302836842EA0302C36842EA03024F
:1028E00042EA0101DE4AC2F8041370470021016088
:1028F00041608160C160704721B1826842F001028D
:10290000826003E0826822F00102826070470A461A
:1029100000214168D34B1940114341607047416227
:10292000826270470A460021416821F01F0111436D
:102930004160704738B1C849096841F40001C84A8C
:10294000C2F8041306E0C449096821F40001C44A2E
:10295000C2F80413704738B1BF49096841F48001D7
:10296000BF4AC2F8041306E0BB49096821F480019C
:10297000BB4AC2F804137047F0B504460D46002068
:102980000021092D11DDE068A5F10A0606EB4607D6
:10299000072606FA07F18843A5F10A0606EB460664
:1029A00003FA06F10843E0600CE0206905EB4507F7
:1029B000072606FA07F1884305EB450603FA06F1F8
:1029C00008432061072A0FDA606B561E06EB860764
:1029D0001F2606FA07F18843561E06EB860605FAFF
:1029E00006F10843606322E00D2A0FDA206BD61F40
:1029F00006EB86071F2606FA07F18843D61F06EB6B
:102A0000860605FA06F10843206310E0E06AA2F1A9
:102A10000D0606EB86071F2606FA07F18843A2F18A
:102A20000D0606EB860605FA06F10843E062F0BDE6
:102A3000816841F0804181607047014600208A68CA
:102A400012F4800F01D0012000E00020704721B176
:102A5000826842F48062826003E0826822F48062CD
:102A60008260704721B1826842F00202826003E016
:102A7000826822F002028260704710B50A46002187
:102A80000023416821F46041531E41EA4331416013
:102A900010BD21B1426842F40062426003E0426826
:102AA00022F40062426070470146C86C80B27047F1
:102AB0006D480068704721B1826842F4807282607C
:102AC00003E0826822F480728260704721B18268DC
:102AD00042F40072826003E0826822F40072826035
:102AE000704738B15C49096841F400515C4AC2F84A
:102AF000041306E05849096821F40051584AC2F805
:102B000004137047F0B50446154600200022002645
:102B1000092911DDE068A1F10A0707EB470C072737
:102B200007FA0CF29043A1F10A0707EB470703FAF3
:102B300007F21043E0600CE0206901EB410C07272D
:102B400007FA0CF2904301EB410703FA07F2104336
:102B50002061A06BC0F30156EF1C06F1010CA7EB3E
:102B60000C0707EB870C1F2707FA0CF29043EF1CAA
:102B700006F1010CA7EB0C0707EB870701FA07F238
:102B80001043A063F0BD10B50A4600210023816BFD
:102B900021F44011531E41EA0351816310BD08B571
:102BA000002300930090009B0B440093009B1A604D
:102BB00008BD0A460021816821F47021114381601B
:102BC00070470A460021816821F440111143816059
:102BD0007047816841F480018160704701460020A0
:102BE0008A6812F4800F01D0012000E000207047B5
:102BF00021B1426842F48062426003E0426822F4FC
:102C000080624260704721B1426842F48052426063
:102C100003E0426822F480524260704708B50246E1
:102C200000200090009201F12800009B18440090C1
:102C30000098006880B208BD10B50B460021D9B2DB
:102C4000012404FA01F18AB144680C43446010E0A5
:102C5000FFFEFFFCFDF7FFC004230140E030FCFF56
:102C600000200140FFFD3FFF0823014044688C43E2
:102C7000446010BD0246002013680B4201D00120C1
:102C800000E000207047CA430260704770B50246FA
:102C90000020002300240B12556801268E4005EA0F
:102CA000060415681D4202D00CB1012000E000208E
:102CB00070BD00220A12D3430360704710B504466A
:102CC000FE48844209D10121480601F022FC00217E
:102CD0004FF0007001F01DFC08E00121880601F0B2
:102CE00018FC00214FF0806001F013FC10BD30B5DE
:102CF000024600200023146824F0020414601468C3
:102D000044F00104146000E05B1C546814F0010FEF
:102D100003D1A3F57F44FF3CF6D1546814F0010FB2
:102D200001D100206CE08C79012C04D1146844F0AE
:102D30008004146003E0146824F080041460CC79EB
:102D4000012C04D1146844F04004146003E01468BA
:102D500024F0400414600C7A012C04D1146844F06F
:102D60002004146003E0146824F0200414604C7AFA
:102D7000012C04D1146844F01004146003E01468BA
:102D800024F0100414608C7A012C04D1146844F0EF
:102D90000804146003E0146824F008041460CC7A7A
:102DA000012C04D1146844F00404146003E0146896
:102DB00024F0040414608C78A407CD7844EA0564F8
:102DC0000D7944EA05444D7944EA05540D886D1E99
:102DD0002C43D461146824F001041460002300E043
:102DE0005B1C546814F0010F03D0A3F57F44FF3C33
:102DF000F6D1546814F0010F01D0002000E001204A
:102E000030BD10B50021837A012202FA03F1AC4AE9
:102E1000126842F00102AA4B1A60A94A1C321268D9
:102E20008A43A74B1C331A60027BCAB9A44A0C32EE
:102E300012688A43A24B0C331A604288C38842EA64
:102E400003439F4A4032847A42F8343002888388B0
:102E500042EA03439A4A4032847A02EBC402536046
:102E6000027B012A19D1964A0C3212680A43944B0C
:102E70000C331A604288038842EA0343904A403286
:102E8000847A42F83430C288838842EA03438C4A09
:102E90004032847A02EBC4025360C27A3AB9884A5B
:102EA000121D12688A43864B1B1D1A6006E0844A75
:102EB000121D12680A43824B1B1D1A60028932B927
:102EC0007F4A143212688A437D4B14331A60028998
:102ED000012A06D17A4A143212680A43784B143315
:102EE0001A60427B012A06D1754A1C3212680A43D5
:102EF000734B1C331A60724A126822F00102704B45
:102F00001A6010BD00218171C1710172417281721C
:102F1000C1728170C17003210171022141710121CF
:102F2000018070476649096841F00101644A1160F7
:102F30001146096843F60E729143614A11601146C9
:102F4000096841EA002111601146096821F0010178
:102F50001160704721B1026842F48032026003E0E0
:102F6000026822F4803202607047E1B1026842F0E8
:102F7000800202604FF4C272125842F480734FF420
:102F8000C27213504FF4CA72125842F480734FF455
:102F9000CA7213504FF4D272125842F480734FF435
:102FA000D27213501BE0026822F0800202604FF4DC
:102FB000C272125822F480734FF4C27213504FF44D
:102FC000CA72125822F480734FF4CA7213504FF42D
:102FD000D272125822F480734FF4D2721350704799
:102FE00010B502460020936803F08063B3F1806F50
:102FF00000D110E0936803F00063B3F1006F01D1DA
:10300000012008E0936803F08053B3F1805F01D1A1
:10301000022000E00420042879D002F5C07303EBFD
:1030200000131B6803F0010402F5C07303EB0013E7
:103030001C600B7A7BB94B7A0C8843EA445302F547
:10304000C07404EB00142468234302F5C07404EB3D
:103050000014236010E00B7A4C6843EAC4034C7AF6
:10306000234302F5C07404EB00142468234302F5E3
:10307000C07404EB001423608B7A03F00F038B728F
:1030800002F5C07303EB00135B6823F00F0402F535
:10309000C07303EB00135C6002F5C07303EB001315
:1030A0005B688C7A234302F5C07404EB0014636000
:1030B0008B7B1C064B7B44EA034403E00064004026
:1030C000006600400B7B44EA0323CC7A234302F5DD
:1030D000C07404EB0014A3608B7C1C064B7C44EA98
:1030E00003440B7C44EA0323CC7B234302F5C074E6
:1030F00004EB0014E36002F5C07303EB00131B68DC
:1031000043F0010402F5C07303EB00131C6010BD13
:1031100010B50246002321B1012907D002290FD1A1
:1031200009E09068F84C00EA04030BE09068F74C63
:1031300000EA040306E09068F54C00EA040301E0AD
:10314000002300BF00BFF34C181BA34216D007DCBE
:1031500083B16FF0806018180ED0022818D111E0EA
:10316000B0F5007F10D0EC4C001909D0B0F5003F4D
:103170000ED10BE002230DE000230BE0002309E059
:10318000002307E0012305E0012303E0012301E020
:10319000002300BF00BFD8B210BD21B1012907D064
:1031A00002290FD109E0826842F0800282600AE0C1
:1031B000826842F40042826005E0826842F40002C4
:1031C000826000E000BF00BF704710B500F5D87303
:1031D00003EB01131B6803F004031372137A53B952
:1031E00000F5D87303EB01131B6840F2FF7404EA87
:1031F0005353136009E000F5D87303EB01131B6808
:103200006FF0604404EAD303536000F5D87303EB16
:1032100001131B6803F00203537200F5D87303EB2C
:1032200001135B6803F00F03937200F5D87303EB8F
:1032300001135B681B0AD37400F5D87303EB011309
:103240009B68D37200F5D87303EB01139B681C0ACB
:10325000147300F5D87303EB01139B681C0C5473B3
:1032600000F5D87303EB01139B681B0E937300F5F5
:10327000D87303EB0113DB68D37300F5D87303EB4A
:103280000113DB681C0A147400F5D87303EB0113F7
:10329000DB681C0C547400F5D87303EB0113DB6876
:1032A0001B0E937421B9C36843F02003C36003E08D
:1032B000036943F02003036110BD21B9C26842F0E5
:1032C0002002C26003E0026942F0200202617047FE
:1032D0000246002019B9D36803F0030006E0012973
:1032E00003D1136903F0030000E00020704710B51C
:1032F00002460B4600204FF6FF71BBB9146824F05C
:10330000020444F00104146000E0491E546804F013
:103310000304012C01D00029F7D1546804F0030400
:10332000012C01D0002032E0012030E0012B13D12C
:10333000146824F00304146000E0491E546814F07B
:10334000030F01D00029F8D1546814F0030F01D005
:1033500000201CE001201AE0022B17D1146824F091
:10336000010444F00204146000E0491E546804F0B3
:103370000304022C01D00029F7D1546804F003049F
:10338000022C01D0002002E0012000E0002010BD4E
:10339000014600200A6822F0010242F002020A609F
:1033A0004A6802F00302022A00D101207047014658
:1033B0004FF6FF7200200B6823F002030B6000E061
:1033C000521E4B6803F00203022B01D1002AF7D1F1
:1033D0004B6803F00203022B00D001207047014626
:1033E00000208A6902F070007047014600208A6957
:1033F000100E7047014600208A69C2F307407047EB
:103400001AB143690B43436102E043698B43436153
:10341000704710B50246002011F4700F08D0936970
:10342000C1F31304234201D001202DE000202BE042
:1034300011F0807F08D05368C1F31304234201D0F8
:10344000012021E000201FE011F0006F08D09368F8
:10345000C1F31304234201D0012015E0002013E042
:1034600011F0007F08D0D368C1F31304234201D0C8
:10347000012009E0002007E01369C1F3130423428F
:1034800001D0012000E0002010BD0022234B994212
:1034900002D10023836111E0C1F3130211F0007F18
:1034A00001D0C2600AE011F0806F01D0026105E036
:1034B00011F0006F01D0826000E042607047024668
:1034C00000200A4201D0012000E00020704770B5C2
:1034D00004460D4600266069284272D0B5F5807F0B
:1034E00069D01DDC082D42D006DC012D2DD0022D27
:1034F00031D0042D7FD134E0102D3ED0202D42D08C
:10350000402D78D145E000000300000400030008CE
:1035100000000310000100080001FFF77000F03008
:10352000B5F5004F61D009DCB5F5007F4AD0B5F59F
:10353000806F4DD0B5F5006F5DD150E0B5F5803F9F
:103540002DD0B5F5003F56D12FE0A0685549FFF7C3
:10355000B6FF064651E0E0680321FFF7B0FF0646DC
:103560004BE0E0680821FFF7AAFF064645E0E06867
:103570001021FFF7A4FF06463FE020690321FFF773
:103580009EFF064639E020690821FFF798FF0646AE
:1035900033E020691021FFF792FF06462DE06068B6
:1035A0000821FFF78CFF064627E060681021FFF72F
:1035B00086FF064621E0A0690121FFF780FF06464D
:1035C0001BE01BE0A0690221FFF779FF064614E02B
:1035D000A0690421FFF773FF06460EE00BE0A06927
:1035E0007021FFF76CFF064607E060680421FFF7D3
:1035F00066FF064601E0002600BF00E000263046D8
:1036000070BDB1F5007F3AD00FDC202928D006DC50
:1036100001291CD004291DD0082940D11DE04029D2
:1036200021D0B1F5807F3AD126E0B1F5004F31D0FD
:1036300006DCB1F5806F25D0B1F5006F2FD124E005
:10364000B1F5803F12D0B1F5003F28D111E0154A05
:10365000826025E00822C26022E01022C2601FE0E2
:10366000082202611CE01022026119E00822426077
:1036700016E01022426013E00422426010E00422AF
:1036800042600DE0042242600AE0002282610422CE
:10369000426005E0002282610422426000E000BF37
:1036A00000BF704701010100016821F001010160C4
:1036B0000021016041608160C1600161212141619F
:1036C000DA49884204D13D21D84A103A91608CE011
:1036D000D6491831884205D14FF47461D34A103A63
:1036E000916082E0D1493031884205D14FF47411A4
:1036F000CE4A103A916078E0CC494831884205D1F1
:103700004FF07461C94A103A91606EE0C749603168
:10371000884204D1C649C54A103AD16065E0C34920
:103720007831884204D1C349C04A103AD1605CE084
:10373000BE499031884204D1BF49BC4A103AD16099
:1037400053E0BA49A831884205D14FF03D51B74AFC
:10375000103AD16049E0B949884204D13D21B74AC5
:10376000083A116041E0B5491831884205D14FF45B
:103770007461B24A083A116037E0B049303188428A
:1037800005D14FF47411AD4A083A11602DE0AB49F0
:103790004831884205D14FF07461A84A083A116057
:1037A00023E0A6496031884204D1A149A34A121FEF
:1037B00011601AE0A1497831884204D19D499F4A9D
:1037C000121F116011E09D499031884204D19A493D
:1037D0009A4A121F116008E09849A831884204D122
:1037E0004FF03D51954A121F1160704710B50022ED
:1037F0000268934B1A40CC680B6823434C692343FF
:103800008C692343CC6923430C6A23434C6A2343CA
:103810008C6A23434C6B23438C6B23431A43026013
:10382000426922F00702D1E90B3423431A43426173
:103830000B6943604B6883608B68C36010BD0021D7
:10384000016041608160C160016141618161C1616C
:10385000016241628162C1620163416381637047B9
:1038600021B1026842F00102026003E0026822F026
:1038700001020260704721B1026842F40042026016
:1038800003E0026822F400420260704721B102683E
:1038900042F02002026003E0026822F0200202608F
:1038A0007047416070470146486880B2704722B156
:1038B000036843F40023036003E0036823F4002358
:1038C00003600161704721B1026842F48022026006
:1038D00003E0026822F48022026070470AB10161AD
:1038E00000E0C1607047014600200A6812F4002F12
:1038F00001D0012000E000207047014600200A6846
:1039000012F0010F01D0012000E0002070470146B5
:1039100000204A6902F03800704730B503460A4675
:1039200000200024454DAB4202D24049103901E04D
:103930004249103912F0005F01D04C6800E00C6879
:10394000404D2C40144201D0012000E0002030BD49
:1039500002463A4B9A4202D23448103801E03748C6
:10396000103811F0005F03D0364B0B40C36002E00B
:10397000344B0B408360704710B511F0800F09D0B5
:1039800022B1436943F08003436103E0436923F0BC
:103990008003436180290BD02AB1036801F01E0423
:1039A0002343036004E0036801F01E04A3430360A3
:1039B00010BD70B502460020002400251F4EB24203
:1039C00002D21A4B103B01E01C4B103B1E4E314201
:1039D00006D01E2606EAD124166806EA040502E08F
:1039E000566906F0800511F0005F01D05C6800E0C8
:1039F0001C68144E34400C4202D00DB1012000E08E
:103A0000002070BD02460D4B9A4202D20748103882
:103A100001E00A48103811F0005F03D0094B0B4059
:103A2000C36002E0074B0B408360704710600240A8
:103A30003D000020400F002000003D2010640240A7
:103A40003F801CF07D0F7D0F3C0F3C0F10B50446EE
:103A50008C48844208D10121084600F014FD002161
:103A6000012000F010FD5EE08748844208D101216A
:103A7000022000F008FD0021022000F004FD52E0C9
:103A80008248844208D10121042000F0FCFC00217E
:103A9000042000F0F8FC46E07D48844208D1012172
:103AA000082000F0F0FC0021082000F0ECFC3AE0D7
:103AB0007848844208D10121102000F0E4FC002164
:103AC000102000F0E0FC2EE07348844208D1012170
:103AD000202000F0D8FC0021202000F0D4FC22E0BF
:103AE0006E48844208D10121402000F0CCFC002126
:103AF000402000F0C8FC16E06948844208D101214A
:103B0000802000F0C0FC0021802000F0BCFC0AE016
:103B10006448844207D10121801500F0B4FC0021E3
:103B2000A01500F0B0FC10BDF0B50A46002100233E
:103B3000002400BF3DE0012505FA01F3156805EA00
:103B400003049C4234D105684F000326BE40B543B0
:103B5000056015794E00B540066835430560157956
:103B6000012D02D01579022D16D185684F0003264C
:103B7000BE40B543856055794E00B54086683543F3
:103B80008560456801268E40B54345604568967955
:103B90008E40B6B235434560C5684F000326BE402F
:103BA000B543C560D5794E00B540C6683543C5609C
:103BB000491C1029BFD3F0BD4FF6FF7101600021F1
:103BC000017141718171C171704708B54FF4803244
:103BD0000092009A0A430092009AC261C161009A61
:103BE000C261C2690092C269009208BD024600200B
:103BF00013690B4201D0012000E00020704701460C
:103C0000086980B270470246002053690B4201D018
:103C1000012000E0002070470146486980B27047EB
:103C200001837047418370470AB1018300E04183FB
:103C300070474161704742694A4042617047F0B540
:103C4000002300244D07ED0E02FA05F3CE1000F11B
:103C5000200555F826504E07F70E0F26BE40B543F7
:103C6000CF1000F1200646F82750CE1000F12005B5
:103C700055F8265045EA0304CE1000F1200545F81A
:103C80002640F0BD0000024000040240000802404F
:103C9000000C0240001002400014024000180240D4
:103CA000001C02400020024010B50446FE48844239
:103CB00009D10121480500F02CFC00214FF400102F
:103CC00000F027FC18E0F948844209D10121880559
:103CD00000F01FFC00214FF4800000F01AFC0BE004
:103CE000F348844208D10121C80500F012FC0021EC
:103CF0004FF4000000F00DFC10BD2DE9FF47044615
:103D00000D460026B1460427DFF8A883A6884FF6A3
:103D1000C0700640684600F0CCFADDF80880E6483E
:103D2000B8FBF0F01FFA80F946EA0906A680208861
:103D30004FF6FE71084020800026E049286888423E
:103D40000CD828684000B8FBF0F087B2042F00DAE6
:103D500004273E4309F10100208427E0E888A0F50C
:103D60003F41FF3906D1286800EB4000B8FBF0F076
:103D700087B209E0286800EBC00101EB0010B8FB36
:103D8000F0F087B247F480473805000D01D147F0C5
:103D9000010747F4004006434FF4967009FB00F01A
:103DA0004FF47A7190FBF1F0401C2084A6832088A8
:103DB00040F00100208026884FF6F5300640A888A4
:103DC0006989084306432680A889298908432081F8
:103DD000BDE8FF8741F288310160002181804BF608
:103DE000FF71C1800021018141814FF480418181B7
:103DF000704721B1028842F00102028004E002888B
:103E00004FF6FE731A400280704721B1028842F4D7
:103E10008072028004E002884FF6FF631A4002803D
:103E2000704721B1028842F40072028004E00288E7
:103E30004FF6FF531A400280704712B141F0010162
:103E400001E001F0FE010182704721B1028842F4D5
:103E50008062028004E002884FF6FF331A4002803D
:103E600070470A46002181894FF60173194002F01C
:103E7000FE0319438181704721B1828942F001021A
:103E8000828104E082894FF6FE731A408281704776
:103E900021B1028842F04002028004E002884FF61D
:103EA000BF731A400280704721B1028842F4004279
:103EB000028003E00288C2F30E020280704721B93B
:103EC000028842F08002028004E002884FF67F738D
:103ED0001A4002807047B1F5804F05D0828B4BF6B7
:103EE000FF731A40828303E0828B42F48042828314
:103EF0007047B1F5006F04D1028842F4006202807D
:103F000004E002884FF2FF731A4002807047B1F557
:103F1000005F04D1028842F40052028004E002886B
:103F20004DF6FF731A400280704721B1028842F0BB
:103F30001002028004E002884FF6EF731A400280FC
:103F40007047018270470146088AC0B2704721B1AC
:103F5000028842F48052028004E002884EF6FF7329
:103F60001A4002807047B1F5006F04D1028842F414
:103F70000062028004E002884FF2FF731A40028060
:103F8000704721B1028842F02002028004E00288DA
:103F90004FF6DF731A40028070470146088B00120B
:103FA000704721B1828842F40062828004E08288F6
:103FB0004FF2FF731A408280704721B1828842F429
:103FC0008052828004E082884EF6FF731A4082801D
:103FD000704708B5024600200090009200980844FF
:103FE00000900098008808BD1AB183880B43838035
:103FF00002E083888B438380704770B502460024BB
:10400000002500230020958A138B1B0445EA030634
:1040100026F07F4404EA01068E4201D1012000E02F
:10402000002070BD10B501460020002300228B8ABD
:104030000A8B120443EA020424F07F4010BD0CB541
:104040000246002000230193009300920B0F01937E
:1040500021F07F41019B1BB1009B1433009303E0CF
:10406000090C009B18330093009B1B680B4201D086
:10407000012000E000200CBD002221F07F42D3434C
:104080008382704730B5024600200023948801F0F7
:10409000E06504EA154321F07F41948A0C420FD079
:1040A00073B101200DE000000054004000580040B2
:1040B000005C004000127A0040420F00A086010020
:1040C000002030BD002221F07F42D343838270471D
:1040D000FA48006840F00100F84908600020F749FC
:1040E00008310860F5480068F5490840F349086060
:1040F000F448091D0860081F006820F48020091F8B
:1041000008600020ED490C31086070470021EB4A3F
:10411000921C117011460870704710B501460022BC
:10412000002300204A11012A02D1E44C236808E050
:10413000022A03D1E14C7034236802E0DF4C74346E
:10414000236801F01F02012494401C4201D0012089
:1041500000E0002010BD38B50020009000240025AC
:1041600000BF3120FFF7D9FF05460098401C0090A2
:104170000098B0F5A06F01D0002DF2D03120FFF7EC
:10418000CCFF08B1012400E00024204638BD0146E0
:104190000020CA4A106820F0F80040EAC100106010
:1041A0007047C949086070470021C44A70321170D5
:1041B0001170012802D004280AD104E00121BF4A6D
:1041C0007032117005E00521BC4A7032117000E0B8
:1041D00000BF00BF7047BD490860704770B5049CC0
:1041E00041EA82150126C6EB530645EA064505431A
:1041F00045EA0465B14E361D356070BDB2490866AA
:104200007047820142EA0172AC4B84331A607047F6
:10421000AD4988667047AC49C864704702460020C3
:10422000A64B0833186820F0EC6042EA01031843FB
:10423000A24B083318607047024600209F4B08339A
:10424000186820F0784042EA010318439B4B08337A
:104250001860704701460020984A0832106820F024
:10426000030008431060704794480830006800F06D
:104270000C00704701460020904A0832106820F078
:10428000F000084310607047014600208B4A083256
:10429000106820F4E0500843106070470146002089
:1042A000864A0832106820F4604040EAC10010607D
:1042B0007047F0B5002100220024022500260223C9
:1042C0007E4F08373F6807F00C0121B1042905D063
:1042D000082937D105E07E4F076036E07D4F076043
:1042E00033E0764F3F1D3F68C7F38056734F3F1D45
:1042F0003F6807F03F036EB1764FB7FBF3F7DFF887
:10430000BCC10CF1040CDCF800C0CCF3881C07FB2A
:104310000CF40CE06E4FB7FBF3F7DFF8A0C10CF123
:10432000040CDCF800C0CCF3881C07FB0CF4634FD2
:104330003F1D3F68C7F301477F1C7D00B4FBF5F7C5
:10434000076002E0624F076000BF00BF5B4F0837A5
:104350003F6807F0F00109095F4F7A5C0768D740B2
:104360004760564F08373F6807F4E051890A5A4FB3
:104370007A5C4768D7408760504F08373F6807F43A
:104380006041490B544F7A5C4768D740C760F0BD25
:10439000002100F44072B2F5407F0AD1474A08324A
:1043A000116821F4F8114D4A02401143434A083282
:1043B0001160424A70321268C0F30B031A433F4B3C
:1043C00070331A60704741494439086070473F496B
:1043D00040390860704742490860704739B1374A30
:1043E000303212680243354B30331A6006E0334AEC
:1043F000303212688243314B30331A60704739B122
:104400002E4A3432126802432C4B34331A6006E0D1
:104410002A4A343212688243284B34331A60704778
:1044200039B1264A383212680243244B38331A60B5
:1044300006E0224A383212688243204B38331A6031
:10444000704739B11D4A4032126802431B4B40335A
:104450001A6006E0194A403212688243174B403313
:104460001A60704739B1154A443212680243134B3F
:1044700044331A6006E0114A4432126882430F4BFB
:1044800044331A60704739B10C4A10321268024343
:104490000A4B10331A6006E0084A10321268824351
:1044A000064B10331A607047E1B1044A14321268A7
:1044B0000243024B14331A6019E000000038024036
:1044C000FFFFF6FE1030002400004742800E4742F6
:1044D0000024F40000127A002C060020FFFCFF0FDD
:1044E0005C0147425B4A126882435A4B1A6070472C
:1044F00039B1584A121D12680243564B1B1D1A60EF
:1045000006E0544A121D12688243524B1B1D1A606A
:10451000704739B14F4A0C32126802434D4B0C338D
:104520001A6006E04B4A0C3212688243494B0C3346
:104530001A60704739B1474A103212680243454B3E
:1045400010331A6006E0434A103212688243414B2E
:1045500010331A60704739B13E4A3C321268024348
:104560003C4B3C331A6006E03A4A3C3212688243C4
:10457000384B3C331A60704739B1364A40321268C2
:104580000243344B40331A6006E0324A403212682C
:104590008243304B40331A60704739B12D4A443260
:1045A000126802432B4B44331A6006E0294A443216
:1045B00012688243274B44331A60704739B1254A49
:1045C0004C3212680243234B4C331A6006E0214AF6
:1045D0004C32126882431F4B4C331A60704739B11A
:1045E0001C4A5032126802431A4B50331A6006E0DC
:1045F000184A503212688243164B50331A60704783
:1046000039B1144AD21F12780243124BDB1F1A70C1
:1046100006E0104AD21F127882430E4BDB1F1A703D
:1046200070470C486030006840F080700949603184
:104630000860704701460020064A083A12680A429C
:1046400001D0012000E0002070470249891F087056
:10465000704700001438024010B50446FE488442FA
:1046600008D101210846FFF765FF00210120FFF76F
:1046700061FF9DE0B4F1804F08D101210846FFF7AA
:1046800048FF00210120FFF744FF91E0F3488442F6
:1046900008D101210220FFF73CFF00210220FFF793
:1046A00038FF85E0EE48844208D101210420FFF75D
:1046B00030FF00210420FFF72CFF79E0E948844215
:1046C00008D101210820FFF724FF00210820FFF76F
:1046D00020FF6DE0E448844208D101211020FFF75B
:1046E00018FF00211020FFF714FF61E0DF4884422B
:1046F00008D101212020FFF70CFF00212020FFF727
:1047000008FF55E0DA48844208D101210220FFF772
:1047100011FF00210220FFF70DFF49E0D548844238
:1047200009D101210804FFF705FF00214FF4803073
:10473000FFF700FF3CE0D048844209D10121480442
:10474000FFF7F8FE00214FF40030FFF7F3FE2FE0F3
:10475000CA48844209D101218804FFF7EBFE0021F9
:104760004FF48020FFF7E6FE22E0C548844208D1DE
:1047700001214020FFF7CDFE00214020FFF7C9FEB8
:1047800016E0C048844208D101218020FFF7C1FE15
:1047900000218020FFF7BDFE0AE0BB48844207D11C
:1047A00001218015FFF7B5FE0021A015FFF7B1FE2E
:1047B00010BD00220288A84B98420ED0AC4B984204
:1047C0000BD0B0F1804F08D0A44B984205D0A44B39
:1047D000984202D0A34B984204D14FF68F731A40EF
:1047E0004B881A43A04B984207D0A04B984204D064
:1047F0004FF6FF431A400B891A4302804B68C3628D
:104800000B880385944B984202D0994B984201D172
:104810008B7A03860123838270474FF0FF3141601A
:10482000002101800181418081727047018582826F
:1048300070470A46002101884FF68F7319401143D3
:104840000180704741627047C16270470146486A03
:1048500070470146088D704721B1028842F002027C
:10486000028004E002884FF6FD731A400280704710
:1048700021B1028842F00402028004E002884FF66F
:10488000FB731A400280704721B1028842F0800217
:10489000028004E002884FF67F731A40028070475E
:1048A00002884FF6F7731A40028002880A4302809A
:1048B000704702884FF6FF431A40028002880A437D
:1048C0000280704721B1028842F00102028004E0B8
:1048D00002884FF6FE731A400280704770B50024BC
:1048E00000220023058C4FF6FE7635400584028CAD
:1048F0008388048B4FF68F752C40B51E2C400D8895
:104900002C43751E2A408D892A434D882A43524DD7
:10491000A84202D0564DA84213D14FF6F7752A404F
:10492000CD892A434FF6FB752A408D882A434FF6DE
:10493000FF652B404FF6FF552B400D8A2B434D8AC8
:104940002B43838004838D684563028470BD70B5FA
:10495000002400220023058C4FF6EF7635400584B5
:10496000028C8388048B48F6FF752C404FF6FF4578
:104970002C400D884FF6FF7606EA05252C434FF6AE
:10498000DF752A408D8906EA05152A434D8806EA17
:1049900005152A43304DA84202D0354DA8421DD1FD
:1049A0004FF67F752A40CD894FF6FF7606EA05154A
:1049B0002A434FF6BF752A408D8806EA05152A431B
:1049C0004FF6FF352B404FF2FF752B400D8A06EA5C
:1049D00085052B434D8A06EA85052B438380048396
:1049E0008D688563028470BD70B5002400220023A9
:1049F000058C4FF6FF6635400584028C8388848BD6
:104A00004FF68F752C404FF6FC752C400D882C43CB
:104A10004FF6FF552A408D894FF6FF7606EA0525A9
:104A20002A434D8806EA05252A430B4DA84202D0A9
:104A30000F4DA84238D14FF2FF752A40CD894FF66D
:104A4000FF7606EA05252A434FF6FF352A408D8872
:104A500006EA05252A4319E0000001400004004051
:104A600000080040000C004000100040001400400E
:104A70000004014000400140004401400048014062
:104A800000180040001C0040002000404EF6FF755A
:104A90002B404DF6FF752B400D8A06EA05152B437A
:104AA0004D8A06EA05152B43838084838D68C56390
:104AB000028470BD70B5002200230024058C4EF6E0
:104AC000FF7635400584038C8488828B48F6FF7519
:104AD0002A404FF6FF452A400D884FF6FF7606EA3A
:104AE00005252A434DF6FF752B408D8906EA0535CD
:104AF0002B434D8806EA05352B43FE4DA84202D0D4
:104B0000FD4DA84208D14BF6FF752C400D8A4FF69B
:104B1000FF7606EA85152C43848082838D680564C0
:104B2000038470BD0021018041808180816081818A
:104B3000C18101824182704770B503460020002484
:104B40001846183001258D40ACB21D8CA5431D843C
:104B500009B108290AD100EB610005684FF68F768C
:104B6000354005600568154305600FE00D1FC5F36E
:104B70004E052844056848F6FF763540056005680F
:104B80004FF6FF7606EA02263543056070BD4163A5
:104B9000704781637047C1637047016470470A467C
:104BA0000021018B4FF68F73194011430183704729
:104BB0000A460021018B48F6FF7319404FF6FF7338
:104BC00003EA02231943018370470A460021818BBF
:104BD0004FF68F7319401143818370470A460021B5
:104BE000818B48F6FF7319404FF6FF7303EA0223E7
:104BF0001943818370470A460021018B4FF6F773F2
:104C000019401143018370470A460021018B4FF27E
:104C1000FF7319404FF6FF7303EA02231943018320
:104C200070470A460021818B4FF6F77319401143F4
:104C3000818370470A460021818B4FF2FF73194030
:104C40004FF6FF7303EA02231943818370470A4634
:104C50000021018B4FF6FB7319401143018370470C
:104C60000A460021018B4FF6FF3319404FF6FF73C0
:104C700003EA02231943018370470A460021818B0E
:104C80004FF6FB7319401143818370470A46002198
:104C9000818B4FF6FF3319404FF6FF7303EA02236F
:104CA0001943818370470A460021018B4FF67F73B9
:104CB00019401143018370470A460021018BC1F35B
:104CC0000E014FF6FF7303EA022319430183704775
:104CD0000A460021818B4FF67F731940114381836F
:104CE00070470A460021818BC1F30E014FF6FF7316
:104CF00003EA02231943818370470A460021018C8D
:104D00004FF6FD7319401143018470470A46002194
:104D1000018C4FF6F77319401143018470470A461E
:104D20000021018C4FF6DF7319404FF6FF7303EA41
:104D300002131943018470470A460021018C4FF683
:104D40007F7319404FF6FF7303EA0213194301847E
:104D500070470A460021018C4FF6FF5319404FF669
:104D6000FF7303EA02231943018470470A460021B6
:104D7000018C4FF2FF7319404FF6FF7303EA0223D1
:104D80001943018470470A460021018C4DF6FF73D8
:104D900019404FF6FF7303EA023319430184704749
:104DA00030B5002301248C40A3B2048C9C430484BE
:104DB000048C02FA01F5ADB22C43048430BD30B549
:104DC000002304248C40A3B2048C9C430484048CF0
:104DD00002FA01F5ADB22C43048430BD828B4FF250
:104DE000FF331A408283828B4FF6FF7303EA01235D
:104DF0001A4382837047F0B50C4615460021002205
:104E00000026078C4EF6FF7C07EA0C070784818B8F
:104E1000028C4FF6FF7707EA043640F6FF47394029
:104E20004FF6FF7707EA052739434FF6FF7707EA82
:104E30000337394345F6FF773A4046F480573A4303
:104E400081830284F0BD828B4FF6F3731A40828314
:104E5000828B0A4382837047F0B50C4615460021C9
:104E600000220026078C4FF6FF6C07EA0C07078428
:104E7000818B028C4FF6FF7707EA04264FF60C77FA
:104E800039404FF6FF7707EA03172F4339434FF2B4
:104E9000FF573A4046F480773A4381830284F0BD5D
:104EA000028B4FF2FF331A400283028B4FF6FF73DF
:104EB00003EA01231A4302837047F0B50C461546F6
:104EC000002100220026078C4FF6EF7C07EA0C0732
:104ED0000784018B028C4FF6FF7707EA041640F631
:104EE000FF4739404FF6FF7707EA033739434FF65C
:104EF000FF7703E0000001400004014007EA0527B6
:104F000039434FF65F773A4046F010073A43018342
:104F10000284F0BD028B4FF6F3731A400283028BBA
:104F20000A4302837047F0B50C4615460021002263
:104F3000068C4FF6FE773E400684018B028C4FF6BE
:104F40000C7631407E1C06EA03162E4331434FF6A1
:104F5000F576324044F00106324301830284F0BD0D
:104F600070B505460C46208850B92389A28861880F
:104F70002846FFF7D8FFE1882846FFF7CBFF25E05A
:104F8000208804280AD12389A28861882846FFF74F
:104F900094FFE1882846FFF783FF17E02088082860
:104FA0000AD12389A28861882846FFF755FFE18846
:104FB0002846FFF748FF09E02389A2886188284630
:104FC000FFF719FFE1882846FFF708FF70BD0021B1
:104FD00001804180012181800021C18001817047D1
:104FE0002DE9F04105460C4600260127608808B9E6
:104FF000022600E00026A088012801D1022700E057
:1050000001272088A0B92389A28861882846FFF754
:105010008AFFE1882846FFF77DFF23893A4631461B
:105020002846FFF74AFFE1882846FFF739FF13E0DB
:105030002389A28861882846FFF73FFFE188284638
:10504000FFF72EFF23893A4631462846FFF76BFFCC
:10505000E1882846FFF75EFFBDE8F0810146486B16
:1050600070470146886B70470146C86B7047014620
:10507000086C70470A884B881A438B881A43CB8880
:105080001A430B891A434B891A438B891A43A0F898
:10509000442070470021018041808180C1800181CE
:1050A00041818181704731B1B0F8442042F400421F
:1050B000A0F8442005E0B0F84420C2F30E02A0F8A6
:1050C0004420704721B1828842F00402828004E0CB
:1050D00082884FF6FB731A408280704721B1828824
:1050E00042F00102828004E082884FF6FE731A408B
:1050F000828070471AB183890B43838102E08389E0
:105100008B43838170478182704702460020138A57
:105110000B4201D0012000E000207047CA43028208
:10512000704730B50246002000230024158A05EAA6
:105130000103958905EA010413B10CB1012000E0D7
:10514000002030BDCA430282704741EA0203A0F842
:10515000483070471AB183890B43838102E0838909
:105160008B438381704721B1828842F0080282809C
:1051700004E082884FF6F7731A40828070470189F5
:105180004FF6F8721140018170470A4600210189EB
:105190004FF68F73194011430181704730B50446B3
:1051A0000D4629462046FFF7F0FF208940F0070012
:1051B000208130BD2DE9F04104460D4616461F46BC
:1051C000602D06D13B46012231462046FFF775FE91
:1051D00005E03B46012231462046FFF7A4FE294662
:1051E0002046FFF7D2FF208940F007002081BDE86C
:1051F000F08130B50C4600210189C9B24FF6FF7528
:1052000005EA0325154325432943018130BD2DE9D6
:10521000F04105460E4617469846002443463A4656
:1052200031462846FFF7E5FF2C894FF6F870044019
:1052300044F007044FF68F70044044F070042C8152
:10524000BDE8F081F0B504460D4616461F463B46C4
:10525000324629462046FFF7CCFF208940F48040A3
:105260002081F0BD82884FF68F731A408280828839
:105270000A438280704702894FF6F8731A40028110
:1052800002890A430281704702894FF67F731A40F0
:10529000028102890A4302817047F0B50C46154627
:1052A0001E460021002200230189028B038C4FF649
:1052B000F877394021434FF6FC473A4040F2011756
:1052C0003A434FF6DD773B404FF6FF7707EA061784
:1052D0002F433B43018102830384F0BD21B18288C7
:1052E00042F08002828004E082884FF67F731A4089
:1052F00082807047A0F850107047000010B5044637
:10530000F748844208D101211020FFF713F900214A
:105310001020FFF70FF93EE0F248844209D1012145
:105320004804FFF7F6F800214FF40030FFF7F1F8DA
:1053300031E0ED48844209D101218804FFF7E9F802
:1053400000214FF48020FFF7E4F824E0E74884428E
:1053500009D10121C804FFF7DCF800214FF4002037
:10536000FFF7D7F817E0E248844209D10121080588
:10537000FFF7CFF800214FF48010FFF7CAF80AE0DA
:10538000DC48844207D101212020FFF7D3F8002117
:105390002020FFF7CFF810BD2DE9FF4705460E4648
:1053A0000024A14600BFA046B08900B100BF2C8AEE
:1053B00024F44054F08804432C82AC8941F20C6000
:1053C0008443B08831890843718908430443AC8120
:1053D000AC8A24F44074B0890443AC826846FEF77A
:1053E00068FFBF48854202D0C248854202D1DDF83D
:1053F0000C9001E0DDF80890A88910F4004F08D067
:1054000009EBC90000EB091031684900B0FBF1F766
:1054100007E009EBC90000EB091031688900B0FB17
:10542000F1F76420B7FBF0F004012009642101FBCF
:105430001078A88910F4004F08D0322000EBC80083
:10544000B0FBF1F000F00700044308E0322000EB6D
:1054500008106421B0FBF1F000F00F0004432C8130
:10546000BDE8FF874FF41651016000218180C180A3
:1054700001810C21418100218181704710B50246D4
:105480000020108A20F470600B884C8823438C889D
:105490002343CC8823431843108210BD0021018090
:1054A00041808180C180704721B1828942F40052DD
:1054B000828104E082894DF6FF731A408281704731
:1054C000028B02F47F420283028B0A4302837047FD
:1054D00021B1828942F40042828103E08289C2F3D1
:1054E0000E028281704721B1828A42F40062828278
:1054F00004E0828A4FF2FF731A4082827047C1F340
:1055000008028280704701468888C0F3080070470F
:10551000028A4FF6F0731A400282028A0A4302821C
:10552000704721B1828942F00202828104E08289BF
:105530004FF6FD731A408281704782894FF2FF73E4
:105540001A40828182890A4382817047028A4FF61B
:10555000DF731A400282028A0A430282704721B135
:10556000028A42F48042028204E0028A4BF6FF7310
:105570001A4002827047818941F0010181817047A0
:1055800021B1828A42F00802828204E0828A4FF6C8
:10559000F7731A4082827047028BD2B20283028B69
:1055A00042EA01220283704721B1828A42F020023E
:1055B000828204E0828A4FF6DF731A40828270474B
:1055C00021B1828A42F01002828204E0828A4FF680
:1055D000EF731A4082827047828A4FF6FB731A403B
:1055E0008282828A0A438282704721B1828A42F093
:1055F0000202828204E0828A4FF6FD731A408282A0
:1056000070471AB1838A0B43838202E0838A8B43FB
:1056100083827047F0B50346002400260025002051
:10562000A1F510676A3F00D100BF1846C1F34214CC
:1056300001F01F06012707FA06F5012C01D10C30F5
:1056400004E0022C01D1103000E014301AB10768D8
:105650002F43076002E00768AF430760F0BD0246D2
:105660000020B1F5007F00D100BF13880B4201D0AC
:10567000012000E00020704701F40072B2F5007FC5
:1056800000D100BFCA430280704770B502460024B3
:10569000002300250020A1F510666A3E00D100BF5E
:1056A000C1F3421501F01F03012606FA03F3012D91
:1056B00002D19689334006E0022D02D1168A33408A
:1056C00001E0968A33400C12012606FA04F416888B
:1056D000344013B10CB1012000E0002070BD000087
:1056E000001001400044004000480040004C0040D1
:1056F000005000400014014010B500220023A1F525
:1057000010646A3C00D100BF0A1201249440A3B285
:10571000DC43048010BDD2B201E000F8012B491E29
:10572000FBD270470022F6E710B513460A4604463E
:105730001946FFF7F0FF204610BD30B504460020A3
:10574000034600E05B1C934203D2E05CCD5C401B4F
:10575000F8D030BD064C074D06E0E06840F001038C
:1057600094E8070098471034AC42F6D3FAF70EFDE0
:10577000645A0008845A000870B501EB020410F85E
:10578000015B15F0070301D110F8013B2A1106D186
:1057900010F8012B03E010F8016B01F8016B5B1EA0
:1057A000F9D12B0705D40023521E0FD401F8013B79
:1057B000FAE710F8013B02F10202A1EB030303E058
:1057C00013F8015B01F8015B521EF9D5A142D6D353
:1057D000002070BD014A024900F013B83D050008E1
:1057E0003C06002002E008C8121F08C1002AFAD1B6
:1057F00070477047002001E001C1121F002AFBD151
:1058000070472DE9F04116460F460446002503E097
:105810003946B0476D1C641C20780028F8D1284612
:10582000BDE8F08130003030061107130805309EC6
:10583000300F3F300838FE300030312E30322E30FD
:10584000333400E6FFFE30060137FFFE300F003F25
:10585000FFFE3008000038FF302800583025015680
:10586000302600563014003C005504B007D060309C
:105870000E0307D0005000500023DB301001030757
:10588000D0005000500023DE300F3F300838301079
:10589000010307D0005000500023DE300E0304B097
:1058A000005500500023BD3010010307D000500008
:1058B000500023DE3010010307D0005000500023B9
:1058C000DE300E0304B0005500500023BD30C2008E
:1058D000F230C2100230C2201230C2302230C24038
:1058E0003230C2504230C26052300A3A300D3D3040
:1058F000B0E000FE30280159FFFE30250156FFFEC2
:1059000030260157FFFE30140145FFFE300E013FE7
:10591000FFFE30100141FFFE300F0140FFFE300856
:105920001F94EBFFFE30100141FFFE300E013FFFE0
:10593000FE30100141FFFE30100141FFFE300E012C
:105940003FFFFE30C2014B553032095237363539F0
:1059500035320000000092FFFE30C201000000005E
:105960000C363832303130393134320000FFFE30FD
:10597000C2010000000004323932300B32354E4F84
:1059800056325BFFFE30C201303134320002323514
:105990004E4F5632303134320FFFFE30C20100001C
:1059A0000000000232354E4F56323031343248FF5B
:1059B000FE30C20100000000000232354E4F563268
:1059C0003031343248FFFE30C20100807F807F805A
:1059D0007F807F807F807F807F807F807F807F80CF
:1059E0007F807F807F807F807FE4FFFE300A04BC61
:1059F000FAFFFE300D011F011B00FA014A017C3B3A
:105A0000FFFE30B003840384028A03E803E8A41095
:105A10006B6C022606400A2805469088213401C294
:105A2000054608FC06408BFF30100040300F3F3029
:105A30000838300A3A300D3DFE30100141FFFE308B
:105A40000F003FFFFE3008000038FFFE300A000064
:105A50003AFFFE300D010D010F00FC0141015EF81F
:105A6000FF000000845A00080000002040060000EB
:105A700078570008185E000840060020C80400009F
:105A8000F45700083CFFEEAA010110034EF0F12785
:105A900001020202191923CF0F32371ACC0832360D
:105AA0001AC80832351AC40832341AC00832331AF8
:105AB000BC0832321AB70832311AB20832301AAD85
:105AC00008322F1AA708322E1AA108322D1A9B0865
:105AD000322C1A9408322B1A8D08322A1A85083271
